{
  "contractName": "Voting",
  "abi": [
    {
      "inputs": [],
      "stateMutability": "nonpayable",
      "type": "constructor"
    },
    {
      "inputs": [],
      "name": "admin",
      "outputs": [
        {
          "internalType": "address",
          "name": "",
          "type": "address"
        }
      ],
      "stateMutability": "view",
      "type": "function",
      "constant": true
    },
    {
      "inputs": [
        {
          "internalType": "uint256",
          "name": "",
          "type": "uint256"
        }
      ],
      "name": "candidates",
      "outputs": [
        {
          "internalType": "uint256",
          "name": "id",
          "type": "uint256"
        },
        {
          "internalType": "string",
          "name": "name",
          "type": "string"
        },
        {
          "internalType": "string",
          "name": "party",
          "type": "string"
        },
        {
          "internalType": "string",
          "name": "manifesto",
          "type": "string"
        },
        {
          "internalType": "uint256",
          "name": "voteCount",
          "type": "uint256"
        }
      ],
      "stateMutability": "view",
      "type": "function",
      "constant": true
    },
    {
      "inputs": [],
      "name": "candidatesCount",
      "outputs": [
        {
          "internalType": "uint256",
          "name": "",
          "type": "uint256"
        }
      ],
      "stateMutability": "view",
      "type": "function",
      "constant": true
    },
    {
      "inputs": [],
      "name": "electionEndTime",
      "outputs": [
        {
          "internalType": "uint256",
          "name": "",
          "type": "uint256"
        }
      ],
      "stateMutability": "view",
      "type": "function",
      "constant": true
    },
    {
      "inputs": [],
      "name": "electionEnded",
      "outputs": [
        {
          "internalType": "bool",
          "name": "",
          "type": "bool"
        }
      ],
      "stateMutability": "view",
      "type": "function",
      "constant": true
    },
    {
      "inputs": [],
      "name": "electionStartTime",
      "outputs": [
        {
          "internalType": "uint256",
          "name": "",
          "type": "uint256"
        }
      ],
      "stateMutability": "view",
      "type": "function",
      "constant": true
    },
    {
      "inputs": [],
      "name": "electionStarted",
      "outputs": [
        {
          "internalType": "bool",
          "name": "",
          "type": "bool"
        }
      ],
      "stateMutability": "view",
      "type": "function",
      "constant": true
    },
    {
      "inputs": [],
      "name": "electionTitle",
      "outputs": [
        {
          "internalType": "string",
          "name": "",
          "type": "string"
        }
      ],
      "stateMutability": "view",
      "type": "function",
      "constant": true
    },
    {
      "inputs": [
        {
          "internalType": "address",
          "name": "",
          "type": "address"
        }
      ],
      "name": "voters",
      "outputs": [
        {
          "internalType": "bool",
          "name": "isRegistered",
          "type": "bool"
        },
        {
          "internalType": "bool",
          "name": "hasVoted",
          "type": "bool"
        }
      ],
      "stateMutability": "view",
      "type": "function",
      "constant": true
    },
    {
      "inputs": [
        {
          "internalType": "string",
          "name": "_title",
          "type": "string"
        },
        {
          "internalType": "uint256",
          "name": "_start",
          "type": "uint256"
        },
        {
          "internalType": "uint256",
          "name": "_end",
          "type": "uint256"
        }
      ],
      "name": "configureElection",
      "outputs": [],
      "stateMutability": "nonpayable",
      "type": "function"
    },
    {
      "inputs": [
        {
          "internalType": "string",
          "name": "_name",
          "type": "string"
        },
        {
          "internalType": "string",
          "name": "_party",
          "type": "string"
        },
        {
          "internalType": "string",
          "name": "_manifesto",
          "type": "string"
        }
      ],
      "name": "addCandidate",
      "outputs": [],
      "stateMutability": "nonpayable",
      "type": "function"
    },
    {
      "inputs": [
        {
          "internalType": "address",
          "name": "_voter",
          "type": "address"
        }
      ],
      "name": "registerVoter",
      "outputs": [],
      "stateMutability": "nonpayable",
      "type": "function"
    },
    {
      "inputs": [],
      "name": "startElection",
      "outputs": [],
      "stateMutability": "nonpayable",
      "type": "function"
    },
    {
      "inputs": [
        {
          "internalType": "uint256",
          "name": "_candidateId",
          "type": "uint256"
        }
      ],
      "name": "vote",
      "outputs": [],
      "stateMutability": "nonpayable",
      "type": "function"
    },
    {
      "inputs": [],
      "name": "endElection",
      "outputs": [],
      "stateMutability": "nonpayable",
      "type": "function"
    },
    {
      "inputs": [],
      "name": "getElectionStatus",
      "outputs": [
        {
          "internalType": "string",
          "name": "",
          "type": "string"
        }
      ],
      "stateMutability": "view",
      "type": "function",
      "constant": true
    },
    {
      "inputs": [
        {
          "internalType": "uint256",
          "name": "_id",
          "type": "uint256"
        }
      ],
      "name": "getCandidate",
      "outputs": [
        {
          "internalType": "uint256",
          "name": "",
          "type": "uint256"
        },
        {
          "internalType": "string",
          "name": "",
          "type": "string"
        },
        {
          "internalType": "string",
          "name": "",
          "type": "string"
        },
        {
          "internalType": "string",
          "name": "",
          "type": "string"
        },
        {
          "internalType": "uint256",
          "name": "",
          "type": "uint256"
        }
      ],
      "stateMutability": "view",
      "type": "function",
      "constant": true
    }
  ],
  "bytecode": "0x60806040523480156200001157600080fd5b50336000806101000a81548173ffffffffffffffffffffffffffffffffffffffff021916908373ffffffffffffffffffffffffffffffffffffffff1602179055506040518060400160405280601781526020017f55454c20426c6f636b636861696e20456c656374696f6e000000000000000000815250600190805190602001906200009f929190620000a6565b50620001ba565b828054620000b49062000185565b90600052602060002090601f016020900481019282620000d8576000855562000124565b82601f10620000f357805160ff191683800117855562000124565b8280016001018555821562000124579182015b828111156200012357825182559160200191906001019062000106565b5b50905062000133919062000137565b5090565b5b808211156200015257600081600090555060010162000138565b5090565b7f4e487b7100000000000000000000000000000000000000000000000000000000600052602260045260246000fd5b600060028204905060018216806200019e57607f821691505b602082108103620001b457620001b362000156565b5b50919050565b611cb280620001ca6000396000f3fe608060405234801561001057600080fd5b506004361061010b5760003560e01c80639e136e64116100a2578063c546c3b211610071578063c546c3b214610287578063c5980c94146102a5578063c94ca9e3146102c3578063d5346da1146102e1578063f851a440146102ff5761010b565b80639e136e6414610200578063a3ec138d1461021e578063ad71f8dc1461024f578063b6f9fed21461026b5761010b565b806335b8e820116100de57806335b8e8201461019c57806338db6dd3146101d057806359f78468146101ec57806362d73eb8146101f65761010b565b80630121b93f14610110578063122902a61461012c5780632d35a8a21461014a5780633477ee2e14610168575b600080fd5b61012a60048036038101906101259190611294565b61031d565b005b6101346105ef565b604051610141919061135a565b60405180910390f35b610152610717565b60405161015f919061138b565b60405180910390f35b610182600480360381019061017d9190611294565b61071d565b6040516101939594939291906113a6565b60405180910390f35b6101b660048036038101906101b19190611294565b6108eb565b6040516101c79594939291906113a6565b60405180910390f35b6101ea60048036038101906101e5919061146c565b610b0c565b005b6101f4610c3a565b005b6101fe610ce5565b005b610208610dd5565b604051610215919061138b565b60405180910390f35b6102386004803603810190610233919061146c565b610ddb565b6040516102469291906114b4565b60405180910390f35b61026960048036038101906102649190611612565b610e19565b005b610285600480360381019061028091906116b9565b610fc1565b005b61028f6110c9565b60405161029c919061135a565b60405180910390f35b6102ad611157565b6040516102ba919061138b565b60405180910390f35b6102cb61115d565b6040516102d89190611728565b60405180910390f35b6102e9611170565b6040516102f69190611728565b60405180910390f35b610307611183565b6040516103149190611752565b60405180910390f35b600460009054906101000a900460ff1661036c576040517f08c379a0000000000000000000000000000000000000000000000000000000008152600401610363906117b9565b60405180910390fd5b600460019054906101000a900460ff16156103bc576040517f08c379a00000000000000000000000000000000000000000000000000000000081526004016103b390611825565b60405180910390fd5b600254421015610401576040517f08c379a00000000000000000000000000000000000000000000000000000000081526004016103f890611891565b60405180910390fd5b600354421115610446576040517f08c379a000000000000000000000000000000000000000000000000000000000815260040161043d906118fd565b60405180910390fd5b600760003373ffffffffffffffffffffffffffffffffffffffff1673ffffffffffffffffffffffffffffffffffffffff16815260200190815260200160002060000160009054906101000a900460ff166104d5576040517f08c379a00000000000000000000000000000000000000000000000000000000081526004016104cc90611969565b60405180910390fd5b600760003373ffffffffffffffffffffffffffffffffffffffff1673ffffffffffffffffffffffffffffffffffffffff16815260200190815260200160002060000160019054906101000a900460ff1615610565576040517f08c379a000000000000000000000000000000000000000000000000000000000815260040161055c906119d5565b60405180910390fd5b6001600760003373ffffffffffffffffffffffffffffffffffffffff1673ffffffffffffffffffffffffffffffffffffffff16815260200190815260200160002060000160016101000a81548160ff0219169083151502179055506006600082815260200190815260200160002060040160008154809291906105e790611a24565b919050555050565b6060600460009054906101000a900460ff16610642576040518060400160405280600b81526020017f4e6f7420537461727465640000000000000000000000000000000000000000008152509050610714565b600460019054906101000a900460ff1615610694576040518060400160405280600581526020017f456e6465640000000000000000000000000000000000000000000000000000008152509050610714565b6002544210156106db576040518060400160405280600981526020017f5363686564756c656400000000000000000000000000000000000000000000008152509050610714565b6040518060400160405280600681526020017f416374697665000000000000000000000000000000000000000000000000000081525090505b90565b60055481565b600660205280600052604060002060009150905080600001549080600101805461074690611a9b565b80601f016020809104026020016040519081016040528092919081815260200182805461077290611a9b565b80156107bf5780601f10610794576101008083540402835291602001916107bf565b820191906000526020600020905b8154815290600101906020018083116107a257829003601f168201915b5050505050908060020180546107d490611a9b565b80601f016020809104026020016040519081016040528092919081815260200182805461080090611a9b565b801561084d5780601f106108225761010080835404028352916020019161084d565b820191906000526020600020905b81548152906001019060200180831161083057829003601f168201915b50505050509080600301805461086290611a9b565b80601f016020809104026020016040519081016040528092919081815260200182805461088e90611a9b565b80156108db5780601f106108b0576101008083540402835291602001916108db565b820191906000526020600020905b8154815290600101906020018083116108be57829003601f168201915b5050505050908060040154905085565b60006060806060600080600660008881526020019081526020016000206040518060a00160405290816000820154815260200160018201805461092d90611a9b565b80601f016020809104026020016040519081016040528092919081815260200182805461095990611a9b565b80156109a65780601f1061097b576101008083540402835291602001916109a6565b820191906000526020600020905b81548152906001019060200180831161098957829003601f168201915b505050505081526020016002820180546109bf90611a9b565b80601f01602080910402602001604051908101604052809291908181526020018280546109eb90611a9b565b8015610a385780601f10610a0d57610100808354040283529160200191610a38565b820191906000526020600020905b815481529060010190602001808311610a1b57829003601f168201915b50505050508152602001600382018054610a5190611a9b565b80601f0160208091040260200160405190810160405280929190818152602001828054610a7d90611a9b565b8015610aca5780601f10610a9f57610100808354040283529160200191610aca565b820191906000526020600020905b815481529060010190602001808311610aad57829003601f168201915b50505050508152602001600482015481525050905080600001518160200151826040015183606001518460800151955095509550955095505091939590929450565b60008054906101000a900473ffffffffffffffffffffffffffffffffffffffff1673ffffffffffffffffffffffffffffffffffffffff163373ffffffffffffffffffffffffffffffffffffffff1614610b9a576040517f08c379a0000000000000000000000000000000000000000000000000000000008152600401610b9190611b18565b60405180910390fd5b604051806040016040528060011515815260200160001515815250600760008373ffffffffffffffffffffffffffffffffffffffff1673ffffffffffffffffffffffffffffffffffffffff16815260200190815260200160002060008201518160000160006101000a81548160ff02191690831515021790555060208201518160000160016101000a81548160ff02191690831515021790555090505050565b60008054906101000a900473ffffffffffffffffffffffffffffffffffffffff1673ffffffffffffffffffffffffffffffffffffffff163373ffffffffffffffffffffffffffffffffffffffff1614610cc8576040517f08c379a0000000000000000000000000000000000000000000000000000000008152600401610cbf90611b18565b60405180910390fd5b6001600460016101000a81548160ff021916908315150217905550565b60008054906101000a900473ffffffffffffffffffffffffffffffffffffffff1673ffffffffffffffffffffffffffffffffffffffff163373ffffffffffffffffffffffffffffffffffffffff1614610d73576040517f08c379a0000000000000000000000000000000000000000000000000000000008152600401610d6a90611b18565b60405180910390fd5b600160055411610db8576040517f08c379a0000000000000000000000000000000000000000000000000000000008152600401610daf90611b84565b60405180910390fd5b6001600460006101000a81548160ff021916908315150217905550565b60035481565b60076020528060005260406000206000915090508060000160009054906101000a900460ff16908060000160019054906101000a900460ff16905082565b60008054906101000a900473ffffffffffffffffffffffffffffffffffffffff1673ffffffffffffffffffffffffffffffffffffffff163373ffffffffffffffffffffffffffffffffffffffff1614610ea7576040517f08c379a0000000000000000000000000000000000000000000000000000000008152600401610e9e90611b18565b60405180910390fd5b600460009054906101000a900460ff1615610ef7576040517f08c379a0000000000000000000000000000000000000000000000000000000008152600401610eee90611bf0565b60405180910390fd5b60056000815480929190610f0a90611a24565b91905055506040518060a0016040528060055481526020018481526020018381526020018281526020016000815250600660006005548152602001908152602001600020600082015181600001556020820151816001019080519060200190610f749291906111a7565b506040820151816002019080519060200190610f919291906111a7565b506060820151816003019080519060200190610fae9291906111a7565b5060808201518160040155905050505050565b60008054906101000a900473ffffffffffffffffffffffffffffffffffffffff1673ffffffffffffffffffffffffffffffffffffffff163373ffffffffffffffffffffffffffffffffffffffff161461104f576040517f08c379a000000000000000000000000000000000000000000000000000000000815260040161104690611b18565b60405180910390fd5b600460009054906101000a900460ff161561109f576040517f08c379a000000000000000000000000000000000000000000000000000000000815260040161109690611c5c565b60405180910390fd5b82600190805190602001906110b59291906111a7565b508160028190555080600381905550505050565b600180546110d690611a9b565b80601f016020809104026020016040519081016040528092919081815260200182805461110290611a9b565b801561114f5780601f106111245761010080835404028352916020019161114f565b820191906000526020600020905b81548152906001019060200180831161113257829003601f168201915b505050505081565b60025481565b600460019054906101000a900460ff1681565b600460009054906101000a900460ff1681565b60008054906101000a900473ffffffffffffffffffffffffffffffffffffffff1681565b8280546111b390611a9b565b90600052602060002090601f0160209004810192826111d5576000855561121c565b82601f106111ee57805160ff191683800117855561121c565b8280016001018555821561121c579182015b8281111561121b578251825591602001919060010190611200565b5b509050611229919061122d565b5090565b5b8082111561124657600081600090555060010161122e565b5090565b6000604051905090565b600080fd5b600080fd5b6000819050919050565b6112718161125e565b811461127c57600080fd5b50565b60008135905061128e81611268565b92915050565b6000602082840312156112aa576112a9611254565b5b60006112b88482850161127f565b91505092915050565b600081519050919050565b600082825260208201905092915050565b60005b838110156112fb5780820151818401526020810190506112e0565b8381111561130a576000848401525b50505050565b6000601f19601f8301169050919050565b600061132c826112c1565b61133681856112cc565b93506113468185602086016112dd565b61134f81611310565b840191505092915050565b600060208201905081810360008301526113748184611321565b905092915050565b6113858161125e565b82525050565b60006020820190506113a0600083018461137c565b92915050565b600060a0820190506113bb600083018861137c565b81810360208301526113cd8187611321565b905081810360408301526113e18186611321565b905081810360608301526113f58185611321565b9050611404608083018461137c565b9695505050505050565b600073ffffffffffffffffffffffffffffffffffffffff82169050919050565b60006114398261140e565b9050919050565b6114498161142e565b811461145457600080fd5b50565b60008135905061146681611440565b92915050565b60006020828403121561148257611481611254565b5b600061149084828501611457565b91505092915050565b60008115159050919050565b6114ae81611499565b82525050565b60006040820190506114c960008301856114a5565b6114d660208301846114a5565b9392505050565b600080fd5b600080fd5b7f4e487b7100000000000000000000000000000000000000000000000000000000600052604160045260246000fd5b61151f82611310565b810181811067ffffffffffffffff8211171561153e5761153d6114e7565b5b80604052505050565b600061155161124a565b905061155d8282611516565b919050565b600067ffffffffffffffff82111561157d5761157c6114e7565b5b61158682611310565b9050602081019050919050565b82818337600083830152505050565b60006115b56115b084611562565b611547565b9050828152602081018484840111156115d1576115d06114e2565b5b6115dc848285611593565b509392505050565b600082601f8301126115f9576115f86114dd565b5b81356116098482602086016115a2565b91505092915050565b60008060006060848603121561162b5761162a611254565b5b600084013567ffffffffffffffff81111561164957611648611259565b5b611655868287016115e4565b935050602084013567ffffffffffffffff81111561167657611675611259565b5b611682868287016115e4565b925050604084013567ffffffffffffffff8111156116a3576116a2611259565b5b6116af868287016115e4565b9150509250925092565b6000806000606084860312156116d2576116d1611254565b5b600084013567ffffffffffffffff8111156116f0576116ef611259565b5b6116fc868287016115e4565b935050602061170d8682870161127f565b925050604061171e8682870161127f565b9150509250925092565b600060208201905061173d60008301846114a5565b92915050565b61174c8161142e565b82525050565b60006020820190506117676000830184611743565b92915050565b7f456c656374696f6e206e6f742073746172746564000000000000000000000000600082015250565b60006117a36014836112cc565b91506117ae8261176d565b602082019050919050565b600060208201905081810360008301526117d281611796565b9050919050565b7f456c656374696f6e20656e646564000000000000000000000000000000000000600082015250565b600061180f600e836112cc565b915061181a826117d9565b602082019050919050565b6000602082019050818103600083015261183e81611802565b9050919050565b7f546f6f206561726c790000000000000000000000000000000000000000000000600082015250565b600061187b6009836112cc565b915061188682611845565b602082019050919050565b600060208201905081810360008301526118aa8161186e565b9050919050565b7f546f6f206c617465000000000000000000000000000000000000000000000000600082015250565b60006118e76008836112cc565b91506118f2826118b1565b602082019050919050565b60006020820190508181036000830152611916816118da565b9050919050565b7f4e6f742072656769737465726564000000000000000000000000000000000000600082015250565b6000611953600e836112cc565b915061195e8261191d565b602082019050919050565b6000602082019050818103600083015261198281611946565b9050919050565b7f416c726561647920766f74656400000000000000000000000000000000000000600082015250565b60006119bf600d836112cc565b91506119ca82611989565b602082019050919050565b600060208201905081810360008301526119ee816119b2565b9050919050565b7f4e487b7100000000000000000000000000000000000000000000000000000000600052601160045260246000fd5b6000611a2f8261125e565b91507fffffffffffffffffffffffffffffffffffffffffffffffffffffffffffffffff8203611a6157611a606119f5565b5b600182019050919050565b7f4e487b7100000000000000000000000000000000000000000000000000000000600052602260045260246000fd5b60006002820490506001821680611ab357607f821691505b602082108103611ac657611ac5611a6c565b5b50919050565b7f4f6e6c792061646d696e20616c6c6f7765640000000000000000000000000000600082015250565b6000611b026012836112cc565b9150611b0d82611acc565b602082019050919050565b60006020820190508181036000830152611b3181611af5565b9050919050565b7f4e656564206174206c6561737420322063616e64696461746573000000000000600082015250565b6000611b6e601a836112cc565b9150611b7982611b38565b602082019050919050565b60006020820190508181036000830152611b9d81611b61565b9050919050565b7f43616e6e6f742061646420616674657220737461727400000000000000000000600082015250565b6000611bda6016836112cc565b9150611be582611ba4565b602082019050919050565b60006020820190508181036000830152611c0981611bcd565b9050919050565b7f416c726561647920737461727465640000000000000000000000000000000000600082015250565b6000611c46600f836112cc565b9150611c5182611c10565b602082019050919050565b60006020820190508181036000830152611c7581611c39565b905091905056fea26469706673582212207e80045a1a92e8d83f685fa565a35f23b98838cbcd8e150a39ca6eb13638cf9564736f6c634300080e0033",
  "immutableReferences": {},
  "source": "// SPDX-License-Identifier: MIT\r\npragma solidity ^0.8.0;\r\n\r\ncontract Voting {\r\n    address public admin;\r\n    string public electionTitle;\r\n\r\n    uint public electionStartTime;\r\n    uint public electionEndTime;\r\n\r\n    bool public electionStarted;\r\n    bool public electionEnded;\r\n\r\n    uint public candidatesCount;\r\n\r\n    struct Candidate {\r\n        uint id;\r\n        string name;\r\n        string party;\r\n        string manifesto;\r\n        uint voteCount;\r\n    }\r\n\r\n    struct Voter {\r\n        bool isRegistered;\r\n        bool hasVoted;\r\n    }\r\n\r\n    mapping(uint => Candidate) public candidates;\r\n    mapping(address => Voter) public voters;\r\n\r\n    modifier onlyAdmin() {\r\n        require(msg.sender == admin, \"Only admin allowed\");\r\n        _;\r\n    }\r\n\r\n    modifier electionActive() {\r\n        require(electionStarted, \"Election not started\");\r\n        require(!electionEnded, \"Election ended\");\r\n        require(block.timestamp >= electionStartTime, \"Too early\");\r\n        require(block.timestamp <= electionEndTime, \"Too late\");\r\n        _;\r\n    }\r\n\r\n    constructor() {\r\n        admin = msg.sender;\r\n        electionTitle = \"UEL Blockchain Election\";\r\n    }\r\n\r\n    function configureElection(\r\n        string memory _title,\r\n        uint _start,\r\n        uint _end\r\n    ) public onlyAdmin {\r\n        require(!electionStarted, \"Already started\");\r\n\r\n        electionTitle = _title;\r\n        electionStartTime = _start;\r\n        electionEndTime = _end;\r\n    }\r\n\r\n    function addCandidate(\r\n        string memory _name,\r\n        string memory _party,\r\n        string memory _manifesto\r\n    ) public onlyAdmin {\r\n        require(!electionStarted, \"Cannot add after start\");\r\n\r\n        candidatesCount++;\r\n        candidates[candidatesCount] = Candidate(\r\n            candidatesCount,\r\n            _name,\r\n            _party,\r\n            _manifesto,\r\n            0\r\n        );\r\n    }\r\n\r\n    function registerVoter(address _voter) public onlyAdmin {\r\n        voters[_voter] = Voter(true, false);\r\n    }\r\n\r\n    function startElection() public onlyAdmin {\r\n        require(candidatesCount > 1, \"Need at least 2 candidates\");\r\n        electionStarted = true;\r\n    }\r\n\r\n    function vote(uint _candidateId) public electionActive {\r\n        require(voters[msg.sender].isRegistered, \"Not registered\");\r\n        require(!voters[msg.sender].hasVoted, \"Already voted\");\r\n\r\n        voters[msg.sender].hasVoted = true;\r\n        candidates[_candidateId].voteCount++;\r\n    }\r\n\r\n    function endElection() public onlyAdmin {\r\n        electionEnded = true;\r\n    }\r\n\r\n    function getElectionStatus() public view returns (string memory) {\r\n        if (!electionStarted) return \"Not Started\";\r\n        if (electionEnded) return \"Ended\";\r\n        if (block.timestamp < electionStartTime) return \"Scheduled\";\r\n        return \"Active\";\r\n    }\r\n\r\n    function getCandidate(uint _id)\r\n        public\r\n        view\r\n        returns (\r\n            uint,\r\n            string memory,\r\n            string memory,\r\n            string memory,\r\n            uint\r\n        )\r\n    {\r\n        Candidate memory c = candidates[_id];\r\n        return (c.id, c.name, c.party, c.manifesto, c.voteCount);\r\n    }\r\n}",
  "sourcePath": "D:\\voting-dapp\\contracts\\Voting.sol",
  "compiler": {
    "name": "solc",
    "version": "0.8.14+commit.80d49f37.Emscripten.clang"
  },
  "schemaVersion": "3.4.16",
  "updatedAt": "2026-04-08T20:14:46.799Z",
  "networkType": "ethereum",
  "devdoc": {
    "kind": "dev",
    "methods": {},
    "version": 1
  },
  "userdoc": {
    "kind": "user",
    "methods": {},
    "version": 1
  }
}