{
  "contractName": "Voting",
  "abi": [
    {
      "inputs": [],
      "stateMutability": "nonpayable",
      "type": "constructor"
    },
    {
      "anonymous": false,
      "inputs": [
        {
          "indexed": true,
          "internalType": "uint256",
          "name": "candidateId",
          "type": "uint256"
        },
        {
          "indexed": false,
          "internalType": "string",
          "name": "name",
          "type": "string"
        },
        {
          "indexed": false,
          "internalType": "string",
          "name": "party",
          "type": "string"
        },
        {
          "indexed": false,
          "internalType": "string",
          "name": "manifesto",
          "type": "string"
        }
      ],
      "name": "CandidateAdded",
      "type": "event"
    },
    {
      "anonymous": false,
      "inputs": [
        {
          "indexed": false,
          "internalType": "string",
          "name": "title",
          "type": "string"
        },
        {
          "indexed": false,
          "internalType": "uint256",
          "name": "startDate",
          "type": "uint256"
        },
        {
          "indexed": false,
          "internalType": "uint256",
          "name": "endDate",
          "type": "uint256"
        }
      ],
      "name": "ElectionConfigured",
      "type": "event"
    },
    {
      "anonymous": false,
      "inputs": [],
      "name": "ElectionEnded",
      "type": "event"
    },
    {
      "anonymous": false,
      "inputs": [],
      "name": "ElectionStarted",
      "type": "event"
    },
    {
      "anonymous": false,
      "inputs": [
        {
          "indexed": true,
          "internalType": "uint256",
          "name": "candidateId",
          "type": "uint256"
        },
        {
          "indexed": true,
          "internalType": "address",
          "name": "voter",
          "type": "address"
        }
      ],
      "name": "Voted",
      "type": "event"
    },
    {
      "anonymous": false,
      "inputs": [
        {
          "indexed": true,
          "internalType": "address",
          "name": "voterAddress",
          "type": "address"
        }
      ],
      "name": "VoterAdded",
      "type": "event"
    },
    {
      "inputs": [],
      "name": "admin",
      "outputs": [
        {
          "internalType": "address",
          "name": "",
          "type": "address"
        }
      ],
      "stateMutability": "view",
      "type": "function",
      "constant": true
    },
    {
      "inputs": [],
      "name": "candidatesCount",
      "outputs": [
        {
          "internalType": "uint256",
          "name": "",
          "type": "uint256"
        }
      ],
      "stateMutability": "view",
      "type": "function",
      "constant": true
    },
    {
      "inputs": [],
      "name": "electionEndDate",
      "outputs": [
        {
          "internalType": "uint256",
          "name": "",
          "type": "uint256"
        }
      ],
      "stateMutability": "view",
      "type": "function",
      "constant": true
    },
    {
      "inputs": [],
      "name": "electionStartDate",
      "outputs": [
        {
          "internalType": "uint256",
          "name": "",
          "type": "uint256"
        }
      ],
      "stateMutability": "view",
      "type": "function",
      "constant": true
    },
    {
      "inputs": [],
      "name": "electionState",
      "outputs": [
        {
          "internalType": "enum Voting.State",
          "name": "",
          "type": "uint8"
        }
      ],
      "stateMutability": "view",
      "type": "function",
      "constant": true
    },
    {
      "inputs": [],
      "name": "electionTitle",
      "outputs": [
        {
          "internalType": "string",
          "name": "",
          "type": "string"
        }
      ],
      "stateMutability": "view",
      "type": "function",
      "constant": true
    },
    {
      "inputs": [
        {
          "internalType": "address",
          "name": "",
          "type": "address"
        }
      ],
      "name": "voters",
      "outputs": [
        {
          "internalType": "bool",
          "name": "isRegistered",
          "type": "bool"
        },
        {
          "internalType": "bool",
          "name": "hasVoted",
          "type": "bool"
        }
      ],
      "stateMutability": "view",
      "type": "function",
      "constant": true
    },
    {
      "inputs": [
        {
          "internalType": "string",
          "name": "_title",
          "type": "string"
        },
        {
          "internalType": "uint256",
          "name": "_startDate",
          "type": "uint256"
        },
        {
          "internalType": "uint256",
          "name": "_endDate",
          "type": "uint256"
        }
      ],
      "name": "configureElection",
      "outputs": [],
      "stateMutability": "nonpayable",
      "type": "function"
    },
    {
      "inputs": [],
      "name": "startElection",
      "outputs": [],
      "stateMutability": "nonpayable",
      "type": "function"
    },
    {
      "inputs": [],
      "name": "endElection",
      "outputs": [],
      "stateMutability": "nonpayable",
      "type": "function"
    },
    {
      "inputs": [
        {
          "internalType": "string",
          "name": "_name",
          "type": "string"
        },
        {
          "internalType": "string",
          "name": "_party",
          "type": "string"
        },
        {
          "internalType": "string",
          "name": "_manifesto",
          "type": "string"
        }
      ],
      "name": "addCandidate",
      "outputs": [],
      "stateMutability": "nonpayable",
      "type": "function"
    },
    {
      "inputs": [
        {
          "internalType": "address",
          "name": "_voter",
          "type": "address"
        }
      ],
      "name": "addVoter",
      "outputs": [],
      "stateMutability": "nonpayable",
      "type": "function"
    },
    {
      "inputs": [
        {
          "internalType": "address",
          "name": "_current",
          "type": "address"
        }
      ],
      "name": "getRole",
      "outputs": [
        {
          "internalType": "uint256",
          "name": "",
          "type": "uint256"
        }
      ],
      "stateMutability": "view",
      "type": "function",
      "constant": true
    },
    {
      "inputs": [
        {
          "internalType": "uint256",
          "name": "_candidateId",
          "type": "uint256"
        }
      ],
      "name": "vote",
      "outputs": [],
      "stateMutability": "nonpayable",
      "type": "function"
    },
    {
      "inputs": [
        {
          "internalType": "uint256",
          "name": "_candidateId",
          "type": "uint256"
        }
      ],
      "name": "getCandidateDetails",
      "outputs": [
        {
          "internalType": "uint256",
          "name": "",
          "type": "uint256"
        },
        {
          "internalType": "string",
          "name": "",
          "type": "string"
        },
        {
          "internalType": "string",
          "name": "",
          "type": "string"
        },
        {
          "internalType": "string",
          "name": "",
          "type": "string"
        },
        {
          "internalType": "uint256",
          "name": "",
          "type": "uint256"
        }
      ],
      "stateMutability": "view",
      "type": "function",
      "constant": true
    },
    {
      "inputs": [],
      "name": "getElectionDetails",
      "outputs": [
        {
          "internalType": "string",
          "name": "",
          "type": "string"
        },
        {
          "internalType": "uint256",
          "name": "",
          "type": "uint256"
        },
        {
          "internalType": "uint256",
          "name": "",
          "type": "uint256"
        },
        {
          "internalType": "uint256",
          "name": "",
          "type": "uint256"
        }
      ],
      "stateMutability": "view",
      "type": "function",
      "constant": true
    }
  ],
  "bytecode": "0x6080604052600060065534801561001557600080fd5b50336000806101000a81548173ffffffffffffffffffffffffffffffffffffffff021916908373ffffffffffffffffffffffffffffffffffffffff16021790555060008060146101000a81548160ff0219169083600281111561007b5761007a610085565b5b02179055506100b4565b7f4e487b7100000000000000000000000000000000000000000000000000000000600052602160045260246000fd5b6125d580620000c46000396000f3fe608060405234801561001057600080fd5b50600436106101005760003560e01c8063a3ec138d11610097578063cb9e57a011610066578063cb9e57a01461027a578063ed836bc314610298578063f4ab9adf146102b9578063f851a440146102d557610100565b8063a3ec138d146101f3578063ad71f8dc14610224578063b6f9fed214610240578063c546c3b21461025c57610100565b80632d35a8a2116100d35780632d35a8a21461019157806344276733146101af57806359f78468146101df57806362d73eb8146101e957610100565b80630121b93f1461010557806314ca29a0146101215780632280043d1461013f57806327f9fd501461015d575b600080fd5b61011f600480360381019061011a919061164c565b6102f3565b005b61012961059a565b6040516101369190611688565b60405180910390f35b6101476105a0565b604051610154919061171a565b60405180910390f35b6101776004803603810190610172919061164c565b6105b3565b6040516101889594939291906117ce565b60405180910390f35b610199610819565b6040516101a69190611688565b60405180910390f35b6101c960048036038101906101c49190611894565b61081f565b6040516101d69190611688565b60405180910390f35b6101e76108e6565b005b6101f1610a43565b005b61020d60048036038101906102089190611894565b610c36565b60405161021b9291906118dc565b60405180910390f35b61023e60048036038101906102399190611a3a565b610c74565b005b61025a60048036038101906102559190611ae1565b610ec4565b005b6102646110f6565b6040516102719190611b50565b60405180910390f35b610282611184565b60405161028f9190611688565b60405180910390f35b6102a061118a565b6040516102b09493929190611b72565b60405180910390f35b6102d360048036038101906102ce9190611894565b611255565b005b6102dd61153b565b6040516102ea9190611bcd565b60405180910390f35b60016002811115610307576103066116a3565b5b600060149054906101000a900460ff166002811115610329576103286116a3565b5b14610369576040517f08c379a000000000000000000000000000000000000000000000000000000000815260040161036090611c34565b60405180910390fd5b600560003373ffffffffffffffffffffffffffffffffffffffff1673ffffffffffffffffffffffffffffffffffffffff16815260200190815260200160002060000160009054906101000a900460ff166103f8576040517f08c379a00000000000000000000000000000000000000000000000000000000081526004016103ef90611ca0565b60405180910390fd5b600560003373ffffffffffffffffffffffffffffffffffffffff1673ffffffffffffffffffffffffffffffffffffffff16815260200190815260200160002060000160019054906101000a900460ff1615610488576040517f08c379a000000000000000000000000000000000000000000000000000000000815260040161047f90611d0c565b60405180910390fd5b60065481106104cc576040517f08c379a00000000000000000000000000000000000000000000000000000000081526004016104c390611d78565b60405180910390fd5b6004600082815260200190815260200160002060040160008154809291906104f390611dc7565b91905055506001600560003373ffffffffffffffffffffffffffffffffffffffff1673ffffffffffffffffffffffffffffffffffffffff16815260200190815260200160002060000160016101000a81548160ff0219169083151502179055503373ffffffffffffffffffffffffffffffffffffffff16817f030b0f8dcd86a031eddb071f91882edeac8173663ba775713b677b42b51be44b60405160405180910390a350565b60025481565b600060149054906101000a900460ff1681565b6000606080606060006006548610610600576040517f08c379a00000000000000000000000000000000000000000000000000000000081526004016105f790611d78565b60405180910390fd5b6000600460008881526020019081526020016000206040518060a00160405290816000820154815260200160018201805461063a90611e3e565b80601f016020809104026020016040519081016040528092919081815260200182805461066690611e3e565b80156106b35780601f10610688576101008083540402835291602001916106b3565b820191906000526020600020905b81548152906001019060200180831161069657829003601f168201915b505050505081526020016002820180546106cc90611e3e565b80601f01602080910402602001604051908101604052809291908181526020018280546106f890611e3e565b80156107455780601f1061071a57610100808354040283529160200191610745565b820191906000526020600020905b81548152906001019060200180831161072857829003601f168201915b5050505050815260200160038201805461075e90611e3e565b80601f016020809104026020016040519081016040528092919081815260200182805461078a90611e3e565b80156107d75780601f106107ac576101008083540402835291602001916107d7565b820191906000526020600020905b8154815290600101906020018083116107ba57829003601f168201915b50505050508152602001600482015481525050905080600001518160200151826040015183606001518460800151955095509550955095505091939590929450565b60065481565b60008060009054906101000a900473ffffffffffffffffffffffffffffffffffffffff1673ffffffffffffffffffffffffffffffffffffffff168273ffffffffffffffffffffffffffffffffffffffff160361087e57600190506108e1565b600560008373ffffffffffffffffffffffffffffffffffffffff1673ffffffffffffffffffffffffffffffffffffffff16815260200190815260200160002060000160009054906101000a900460ff16156108dc57600290506108e1565b600390505b919050565b60008054906101000a900473ffffffffffffffffffffffffffffffffffffffff1673ffffffffffffffffffffffffffffffffffffffff163373ffffffffffffffffffffffffffffffffffffffff1614610974576040517f08c379a000000000000000000000000000000000000000000000000000000000815260040161096b90611ee1565b60405180910390fd5b60016002811115610988576109876116a3565b5b600060149054906101000a900460ff1660028111156109aa576109a96116a3565b5b146109ea576040517f08c379a00000000000000000000000000000000000000000000000000000000081526004016109e190611f4d565b60405180910390fd5b6002600060146101000a81548160ff02191690836002811115610a1057610a0f6116a3565b5b02179055507f66ec723071e4bb646f7b35d31bc2dee8510979bd8c180edd0690d4f5e802f1e460405160405180910390a1565b60008054906101000a900473ffffffffffffffffffffffffffffffffffffffff1673ffffffffffffffffffffffffffffffffffffffff163373ffffffffffffffffffffffffffffffffffffffff1614610ad1576040517f08c379a0000000000000000000000000000000000000000000000000000000008152600401610ac890611ee1565b60405180910390fd5b60006002811115610ae557610ae46116a3565b5b600060149054906101000a900460ff166002811115610b0757610b066116a3565b5b14610b47576040517f08c379a0000000000000000000000000000000000000000000000000000000008152600401610b3e90611fb9565b60405180910390fd5b600060018054610b5690611e3e565b905011610b98576040517f08c379a0000000000000000000000000000000000000000000000000000000008152600401610b8f90612025565b60405180910390fd5b600060065411610bdd576040517f08c379a0000000000000000000000000000000000000000000000000000000008152600401610bd490612091565b60405180910390fd5b6001600060146101000a81548160ff02191690836002811115610c0357610c026116a3565b5b02179055507fc475c26aa25ed8e85a7faa790e5f63b5d7ee1025f12821f4c9bfddd36ab4d11260405160405180910390a1565b60056020528060005260406000206000915090508060000160009054906101000a900460ff16908060000160019054906101000a900460ff16905082565b60008054906101000a900473ffffffffffffffffffffffffffffffffffffffff1673ffffffffffffffffffffffffffffffffffffffff163373ffffffffffffffffffffffffffffffffffffffff1614610d02576040517f08c379a0000000000000000000000000000000000000000000000000000000008152600401610cf990611ee1565b60405180910390fd5b60006002811115610d1657610d156116a3565b5b600060149054906101000a900460ff166002811115610d3857610d376116a3565b5b14610d78576040517f08c379a0000000000000000000000000000000000000000000000000000000008152600401610d6f90612123565b60405180910390fd5b6000835111610dbc576040517f08c379a0000000000000000000000000000000000000000000000000000000008152600401610db39061218f565b60405180910390fd5b6040518060a0016040528060065481526020018481526020018381526020018281526020016000815250600460006006548152602001908152602001600020600082015181600001556020820151816001019080519060200190610e2192919061155f565b506040820151816002019080519060200190610e3e92919061155f565b506060820151816003019080519060200190610e5b92919061155f565b50608082015181600401559050506006547f52b689af7ae3bd15a5156582545571237b58abd804c1456c3269d1b1ee93f6fc848484604051610e9f939291906121af565b60405180910390a260066000815480929190610eba90611dc7565b9190505550505050565b60008054906101000a900473ffffffffffffffffffffffffffffffffffffffff1673ffffffffffffffffffffffffffffffffffffffff163373ffffffffffffffffffffffffffffffffffffffff1614610f52576040517f08c379a0000000000000000000000000000000000000000000000000000000008152600401610f4990611ee1565b60405180910390fd5b60006002811115610f6657610f656116a3565b5b600060149054906101000a900460ff166002811115610f8857610f876116a3565b5b14610fc8576040517f08c379a0000000000000000000000000000000000000000000000000000000008152600401610fbf9061226d565b60405180910390fd5b600083511161100c576040517f08c379a0000000000000000000000000000000000000000000000000000000008152600401611003906122d9565b60405180910390fd5b6000821161104f576040517f08c379a000000000000000000000000000000000000000000000000000000000815260040161104690612345565b60405180910390fd5b818111611091576040517f08c379a0000000000000000000000000000000000000000000000000000000008152600401611088906123d7565b60405180910390fd5b82600190805190602001906110a792919061155f565b5081600281905550806003819055507f5837380cbf1085e3aae43463f3562fae4bb2634c9393d6a55f477a942ed48b618383836040516110e9939291906123f7565b60405180910390a1505050565b6001805461110390611e3e565b80601f016020809104026020016040519081016040528092919081815260200182805461112f90611e3e565b801561117c5780601f106111515761010080835404028352916020019161117c565b820191906000526020600020905b81548152906001019060200180831161115f57829003601f168201915b505050505081565b60035481565b606060008060006001600254600354600060149054906101000a900460ff1660028111156111bb576111ba6116a3565b5b8380546111c790611e3e565b80601f01602080910402602001604051908101604052809291908181526020018280546111f390611e3e565b80156112405780601f1061121557610100808354040283529160200191611240565b820191906000526020600020905b81548152906001019060200180831161122357829003601f168201915b50505050509350935093509350935090919293565b60008054906101000a900473ffffffffffffffffffffffffffffffffffffffff1673ffffffffffffffffffffffffffffffffffffffff163373ffffffffffffffffffffffffffffffffffffffff16146112e3576040517f08c379a00000000000000000000000000000000000000000000000000000000081526004016112da90611ee1565b60405180910390fd5b600060028111156112f7576112f66116a3565b5b600060149054906101000a900460ff166002811115611319576113186116a3565b5b14611359576040517f08c379a0000000000000000000000000000000000000000000000000000000008152600401611350906124a7565b60405180910390fd5b600073ffffffffffffffffffffffffffffffffffffffff168173ffffffffffffffffffffffffffffffffffffffff16036113c8576040517f08c379a00000000000000000000000000000000000000000000000000000000081526004016113bf90612513565b60405180910390fd5b600560008273ffffffffffffffffffffffffffffffffffffffff1673ffffffffffffffffffffffffffffffffffffffff16815260200190815260200160002060000160009054906101000a900460ff1615611458576040517f08c379a000000000000000000000000000000000000000000000000000000000815260040161144f9061257f565b60405180910390fd5b604051806040016040528060011515815260200160001515815250600560008373ffffffffffffffffffffffffffffffffffffffff1673ffffffffffffffffffffffffffffffffffffffff16815260200190815260200160002060008201518160000160006101000a81548160ff02191690831515021790555060208201518160000160016101000a81548160ff0219169083151502179055509050508073ffffffffffffffffffffffffffffffffffffffff167fa636f4a11e2d3ba7f89d042ecb0a6b886716e98cd49d8fd876ee0f73bced42b860405160405180910390a250565b60008054906101000a900473ffffffffffffffffffffffffffffffffffffffff1681565b82805461156b90611e3e565b90600052602060002090601f01602090048101928261158d57600085556115d4565b82601f106115a657805160ff19168380011785556115d4565b828001600101855582156115d4579182015b828111156115d35782518255916020019190600101906115b8565b5b5090506115e191906115e5565b5090565b5b808211156115fe5760008160009055506001016115e6565b5090565b6000604051905090565b600080fd5b600080fd5b6000819050919050565b61162981611616565b811461163457600080fd5b50565b60008135905061164681611620565b92915050565b6000602082840312156116625761166161160c565b5b600061167084828501611637565b91505092915050565b61168281611616565b82525050565b600060208201905061169d6000830184611679565b92915050565b7f4e487b7100000000000000000000000000000000000000000000000000000000600052602160045260246000fd5b600381106116e3576116e26116a3565b5b50565b60008190506116f4826116d2565b919050565b6000611704826116e6565b9050919050565b611714816116f9565b82525050565b600060208201905061172f600083018461170b565b92915050565b600081519050919050565b600082825260208201905092915050565b60005b8381101561176f578082015181840152602081019050611754565b8381111561177e576000848401525b50505050565b6000601f19601f8301169050919050565b60006117a082611735565b6117aa8185611740565b93506117ba818560208601611751565b6117c381611784565b840191505092915050565b600060a0820190506117e36000830188611679565b81810360208301526117f58187611795565b905081810360408301526118098186611795565b9050818103606083015261181d8185611795565b905061182c6080830184611679565b9695505050505050565b600073ffffffffffffffffffffffffffffffffffffffff82169050919050565b600061186182611836565b9050919050565b61187181611856565b811461187c57600080fd5b50565b60008135905061188e81611868565b92915050565b6000602082840312156118aa576118a961160c565b5b60006118b88482850161187f565b91505092915050565b60008115159050919050565b6118d6816118c1565b82525050565b60006040820190506118f160008301856118cd565b6118fe60208301846118cd565b9392505050565b600080fd5b600080fd5b7f4e487b7100000000000000000000000000000000000000000000000000000000600052604160045260246000fd5b61194782611784565b810181811067ffffffffffffffff821117156119665761196561190f565b5b80604052505050565b6000611979611602565b9050611985828261193e565b919050565b600067ffffffffffffffff8211156119a5576119a461190f565b5b6119ae82611784565b9050602081019050919050565b82818337600083830152505050565b60006119dd6119d88461198a565b61196f565b9050828152602081018484840111156119f9576119f861190a565b5b611a048482856119bb565b509392505050565b600082601f830112611a2157611a20611905565b5b8135611a318482602086016119ca565b91505092915050565b600080600060608486031215611a5357611a5261160c565b5b600084013567ffffffffffffffff811115611a7157611a70611611565b5b611a7d86828701611a0c565b935050602084013567ffffffffffffffff811115611a9e57611a9d611611565b5b611aaa86828701611a0c565b925050604084013567ffffffffffffffff811115611acb57611aca611611565b5b611ad786828701611a0c565b9150509250925092565b600080600060608486031215611afa57611af961160c565b5b600084013567ffffffffffffffff811115611b1857611b17611611565b5b611b2486828701611a0c565b9350506020611b3586828701611637565b9250506040611b4686828701611637565b9150509250925092565b60006020820190508181036000830152611b6a8184611795565b905092915050565b60006080820190508181036000830152611b8c8187611795565b9050611b9b6020830186611679565b611ba86040830185611679565b611bb56060830184611679565b95945050505050565b611bc781611856565b82525050565b6000602082019050611be26000830184611bbe565b92915050565b7f456c656374696f6e206973206e6f7420696e2070726f67726573730000000000600082015250565b6000611c1e601b83611740565b9150611c2982611be8565b602082019050919050565b60006020820190508181036000830152611c4d81611c11565b9050919050565b7f596f7520617265206e6f742061207265676973746572656420766f7465720000600082015250565b6000611c8a601e83611740565b9150611c9582611c54565b602082019050919050565b60006020820190508181036000830152611cb981611c7d565b9050919050565b7f596f75206861766520616c726561647920766f74656400000000000000000000600082015250565b6000611cf6601683611740565b9150611d0182611cc0565b602082019050919050565b60006020820190508181036000830152611d2581611ce9565b9050919050565b7f496e76616c69642063616e646964617465204944000000000000000000000000600082015250565b6000611d62601483611740565b9150611d6d82611d2c565b602082019050919050565b60006020820190508181036000830152611d9181611d55565b9050919050565b7f4e487b7100000000000000000000000000000000000000000000000000000000600052601160045260246000fd5b6000611dd282611616565b91507fffffffffffffffffffffffffffffffffffffffffffffffffffffffffffffffff8203611e0457611e03611d98565b5b600182019050919050565b7f4e487b7100000000000000000000000000000000000000000000000000000000600052602260045260246000fd5b60006002820490506001821680611e5657607f821691505b602082108103611e6957611e68611e0f565b5b50919050565b7f4f6e6c792061646d696e2063616e20706572666f726d2074686973206163746960008201527f6f6e000000000000000000000000000000000000000000000000000000000000602082015250565b6000611ecb602283611740565b9150611ed682611e6f565b604082019050919050565b60006020820190508181036000830152611efa81611ebe565b9050919050565b7f456c656374696f6e206973206e6f742061637469766500000000000000000000600082015250565b6000611f37601683611740565b9150611f4282611f01565b602082019050919050565b60006020820190508181036000830152611f6681611f2a565b9050919050565b7f456c656374696f6e20616c726561647920737461727465640000000000000000600082015250565b6000611fa3601883611740565b9150611fae82611f6d565b602082019050919050565b60006020820190508181036000830152611fd281611f96565b9050919050565b7f436f6e66696775726520656c656374696f6e2066697273740000000000000000600082015250565b600061200f601883611740565b915061201a82611fd9565b602082019050919050565b6000602082019050818103600083015261203e81612002565b9050919050565b7f416464206174206c65617374206f6e652063616e646964617465206669727374600082015250565b600061207b602083611740565b915061208682612045565b602082019050919050565b600060208201905081810360008301526120aa8161206e565b9050919050565b7f43616e6e6f74206164642063616e64696461746520616674657220656c65637460008201527f696f6e2073746172747300000000000000000000000000000000000000000000602082015250565b600061210d602a83611740565b9150612118826120b1565b604082019050919050565b6000602082019050818103600083015261213c81612100565b9050919050565b7f43616e646964617465206e616d65206973207265717569726564000000000000600082015250565b6000612179601a83611740565b915061218482612143565b602082019050919050565b600060208201905081810360008301526121a88161216c565b9050919050565b600060608201905081810360008301526121c98186611795565b905081810360208301526121dd8185611795565b905081810360408301526121f18184611795565b9050949350505050565b7f456c656374696f6e20616c72656164792073746172746564206f7220656e646560008201527f6400000000000000000000000000000000000000000000000000000000000000602082015250565b6000612257602183611740565b9150612262826121fb565b604082019050919050565b600060208201905081810360008301526122868161224a565b9050919050565b7f456c656374696f6e207469746c65206973207265717569726564000000000000600082015250565b60006122c3601a83611740565b91506122ce8261228d565b602082019050919050565b600060208201905081810360008301526122f2816122b6565b9050919050565b7f5374617274206461746520697320726571756972656400000000000000000000600082015250565b600061232f601683611740565b915061233a826122f9565b602082019050919050565b6000602082019050818103600083015261235e81612322565b9050919050565b7f456e642064617465206d7573742062652061667465722073746172742064617460008201527f6500000000000000000000000000000000000000000000000000000000000000602082015250565b60006123c1602183611740565b91506123cc82612365565b604082019050919050565b600060208201905081810360008301526123f0816123b4565b9050919050565b600060608201905081810360008301526124118186611795565b90506124206020830185611679565b61242d6040830184611679565b949350505050565b7f43616e6e6f742061646420766f74657220616674657220656c656374696f6e2060008201527f7374617274730000000000000000000000000000000000000000000000000000602082015250565b6000612491602683611740565b915061249c82612435565b604082019050919050565b600060208201905081810360008301526124c081612484565b9050919050565b7f496e76616c696420766f74657220616464726573730000000000000000000000600082015250565b60006124fd601583611740565b9150612508826124c7565b602082019050919050565b6000602082019050818103600083015261252c816124f0565b9050919050565b7f566f74657220616c726561647920726567697374657265640000000000000000600082015250565b6000612569601883611740565b915061257482612533565b602082019050919050565b600060208201905081810360008301526125988161255c565b905091905056fea2646970667358221220536c57b1ae02427c2ba203fbe2b830479b817978b570750f74199ee9356b63a464736f6c634300080e0033",
  "immutableReferences": {},
  "source": "// SPDX-License-Identifier: MIT\r\npragma solidity >=0.4.0 <0.9.0;\r\n\r\ncontract Voting {\r\n    enum State {\r\n        NotStarted,\r\n        InProgress,\r\n        Ended\r\n    }\r\n\r\n    struct Candidate {\r\n        uint256 id;\r\n        string name;\r\n        string party;\r\n        string manifesto;\r\n        uint256 voteCount;\r\n    }\r\n\r\n    struct Voter {\r\n        bool isRegistered;\r\n        bool hasVoted;\r\n    }\r\n\r\n    address public admin;\r\n    State public electionState;\r\n\r\n    string public electionTitle;\r\n    uint256 public electionStartDate;\r\n    uint256 public electionEndDate;\r\n\r\n    mapping(uint256 => Candidate) private candidates;\r\n    mapping(address => Voter) public voters;\r\n\r\n    uint256 public candidatesCount = 0;\r\n\r\n    constructor() {\r\n        admin = msg.sender;\r\n        electionState = State.NotStarted;\r\n    }\r\n\r\n    event ElectionConfigured(\r\n        string title,\r\n        uint256 startDate,\r\n        uint256 endDate\r\n    );\r\n\r\n    event CandidateAdded(\r\n        uint256 indexed candidateId,\r\n        string name,\r\n        string party,\r\n        string manifesto\r\n    );\r\n\r\n    event VoterAdded(address indexed voterAddress);\r\n    event ElectionStarted();\r\n    event ElectionEnded();\r\n    event Voted(uint256 indexed candidateId, address indexed voter);\r\n\r\n    modifier onlyAdmin() {\r\n        require(msg.sender == admin, \"Only admin can perform this action\");\r\n        _;\r\n    }\r\n\r\n    function configureElection(\r\n        string memory _title,\r\n        uint256 _startDate,\r\n        uint256 _endDate\r\n    ) public onlyAdmin {\r\n        require(\r\n            electionState == State.NotStarted,\r\n            \"Election already started or ended\"\r\n        );\r\n        require(bytes(_title).length > 0, \"Election title is required\");\r\n        require(_startDate > 0, \"Start date is required\");\r\n        require(_endDate > _startDate, \"End date must be after start date\");\r\n\r\n        electionTitle = _title;\r\n        electionStartDate = _startDate;\r\n        electionEndDate = _endDate;\r\n\r\n        emit ElectionConfigured(_title, _startDate, _endDate);\r\n    }\r\n\r\n    function startElection() public onlyAdmin {\r\n        require(electionState == State.NotStarted, \"Election already started\");\r\n        require(bytes(electionTitle).length > 0, \"Configure election first\");\r\n        require(candidatesCount > 0, \"Add at least one candidate first\");\r\n\r\n        electionState = State.InProgress;\r\n        emit ElectionStarted();\r\n    }\r\n\r\n    function endElection() public onlyAdmin {\r\n        require(electionState == State.InProgress, \"Election is not active\");\r\n        electionState = State.Ended;\r\n        emit ElectionEnded();\r\n    }\r\n\r\n    function addCandidate(\r\n        string memory _name,\r\n        string memory _party,\r\n        string memory _manifesto\r\n    ) public onlyAdmin {\r\n        require(\r\n            electionState == State.NotStarted,\r\n            \"Cannot add candidate after election starts\"\r\n        );\r\n        require(bytes(_name).length > 0, \"Candidate name is required\");\r\n\r\n        candidates[candidatesCount] = Candidate(\r\n            candidatesCount,\r\n            _name,\r\n            _party,\r\n            _manifesto,\r\n            0\r\n        );\r\n\r\n        emit CandidateAdded(candidatesCount, _name, _party, _manifesto);\r\n        candidatesCount++;\r\n    }\r\n\r\n    function addVoter(address _voter) public onlyAdmin {\r\n        require(\r\n            electionState == State.NotStarted,\r\n            \"Cannot add voter after election starts\"\r\n        );\r\n        require(_voter != address(0), \"Invalid voter address\");\r\n        require(!voters[_voter].isRegistered, \"Voter already registered\");\r\n\r\n        voters[_voter] = Voter(true, false);\r\n        emit VoterAdded(_voter);\r\n    }\r\n\r\n    function getRole(address _current) public view returns (uint256) {\r\n        if (_current == admin) {\r\n            return 1;\r\n        } else if (voters[_current].isRegistered) {\r\n            return 2;\r\n        } else {\r\n            return 3;\r\n        }\r\n    }\r\n\r\n    function vote(uint256 _candidateId) public {\r\n        require(\r\n            electionState == State.InProgress,\r\n            \"Election is not in progress\"\r\n        );\r\n        require(voters[msg.sender].isRegistered, \"You are not a registered voter\");\r\n        require(!voters[msg.sender].hasVoted, \"You have already voted\");\r\n        require(_candidateId < candidatesCount, \"Invalid candidate ID\");\r\n\r\n        candidates[_candidateId].voteCount++;\r\n        voters[msg.sender].hasVoted = true;\r\n\r\n        emit Voted(_candidateId, msg.sender);\r\n    }\r\n\r\n    function getCandidateDetails(uint256 _candidateId)\r\n        public\r\n        view\r\n        returns (\r\n            uint256,\r\n            string memory,\r\n            string memory,\r\n            string memory,\r\n            uint256\r\n        )\r\n    {\r\n        require(_candidateId < candidatesCount, \"Invalid candidate ID\");\r\n\r\n        Candidate memory candidate = candidates[_candidateId];\r\n        return (\r\n            candidate.id,\r\n            candidate.name,\r\n            candidate.party,\r\n            candidate.manifesto,\r\n            candidate.voteCount\r\n        );\r\n    }\r\n\r\n    function getElectionDetails()\r\n        public\r\n        view\r\n        returns (\r\n            string memory,\r\n            uint256,\r\n            uint256,\r\n            uint256\r\n        )\r\n    {\r\n        return (\r\n            electionTitle,\r\n            electionStartDate,\r\n            electionEndDate,\r\n            uint256(electionState)\r\n        );\r\n    }\r\n}",
  "sourcePath": "D:\\voting-dapp\\contracts\\Voting.sol",
  "compiler": {
    "name": "solc",
    "version": "0.8.14+commit.80d49f37.Emscripten.clang"
  },
  "schemaVersion": "3.4.16",
  "updatedAt": "2026-04-12T15:34:36.066Z",
  "networkType": "ethereum",
  "devdoc": {
    "kind": "dev",
    "methods": {},
    "version": 1
  },
  "userdoc": {
    "kind": "user",
    "methods": {},
    "version": 1
  }
}